:100000000C9462000C948A000C948A000C948A0070
:100010000C948A000C948A000C948A000C948A0038
:100020000C948A000C948A000C948A000C948A0028
:100030000C948A000C948A000C948A000C948A0018
:100040000C94F1030C948A000C948A000C948A009E
:100050000C948A000C948A000C948A000C948A00F8
:100060000C943B040C948A0000000000240027003C
:100070002A0000000000250028002B0000000000DE
:1000800023002600290004040404040404040202DA
:100090000202020203030303030301020408102007
:1000A0004080010204081020010204081020000012
:1000B0000008000201000003040700000000000027
:1000C0000000650511241FBECFEFD8E0DEBFCDBF15
:1000D00011E0A0E0B1E0ECE9FFE002C005900D9274
:1000E000A634B107D9F722E0A6E4B1E001C01D9221
:1000F000AD34B207E1F710E0C2E6D0E004C02197CA
:10010000FE010E94C107C136D107C9F70E94F2055E
:100110000C94CC070C94000096E0899FD001112428
:10012000AA53BE4F90967C936E935F9791E0919601
:100130009C93919790913202E0913302F0913402B6
:10014000992339F0309751F0811108C08091E20174
:1001500004C0309719F05C968C9109940895CF9261
:10016000DF92EF92FF920F931F9396E0899FF00129
:100170001124EA53FE4F11A2278D30A12130310501
:1001800039F158F02230310509F447C023303105E8
:1001900009F04FC060E070E044C0662309F449C034
:1001A00061E070E00E948C002FB7F8948091B60156
:1001B0009091B701A091B801B091B9012FBF809380
:1001C0001E0290931F02A0932002B093210231C01F
:1001D0009FB7F894C090B601D090B701E090B801F5
:1001E000F090B9019FBF00911E0210911F02209153
:1001F000200230912102C01AD10AE20AF30A0091CA
:1002000030021091310220E030E00C151D052E0562
:100210003F0518F462E070E004C061110AC063E0B9
:1002200070E01F910F91FF90EF90DF90CF900C94B2
:100230008C001F910F91FF90EF90DF90CF90089569
:10024000833081F028F4813099F08230A1F0089554
:100250008730A9F08830B9F08430D1F480918000E3
:100260008F7D03C0809180008F77809380000895F8
:1002700084B58F7702C084B58F7D84BD0895809149
:10028000B0008F7703C08091B0008F7D8093B00065
:100290000895CF93DF93282F30E0F901E255FF4F07
:1002A0008491F901E656FF4FD491F901EA57FF4FC7
:1002B000C491CC2391F081110E942001EC2FF0E039
:1002C000EE0FFF1FE458FF4FA591B491EC91ED2381
:1002D00081E090E021F480E002C080E090E0DF91D6
:1002E000CF9108951F93CF93DF93282F30E0F9012A
:1002F000E255FF4F8491F901E656FF4FD491F90181
:10030000EA57FF4FC491CC23C1F0162F81110E94F0
:100310002001EC2FF0E0EE0FFF1FEE58FF4FA591EC
:10032000B4919FB7F894111104C08C91D095D82343
:1003300002C0EC91DE2BDC939FBFDF91CF911F9128
:100340000895CF93DF9390E0FC01E656FF4F249190
:10035000FC01EA57FF4F8491882361F190E0880FF8
:10036000991FFC01E859FF4FC591D491FC01EE584B
:10037000FF4FA591B491611109C09FB7F89488818E
:10038000209582238883EC912E230BC0623061F488
:100390009FB7F8948881322F309583238883EC911E
:1003A0002E2B2C939FBF06C08FB7F894E8812E2B7D
:1003B00028838FBFDF91CF9108953FB7F894809144
:1003C000B2019091B301A091B401B091B50126B5ED
:1003D000A89B05C02F3F19F00196A11DB11D3FBF7D
:1003E000BA2FA92F982F8827820F911DA11DB11D0B
:1003F000BC01CD0142E0660F771F881F991F4A9507
:10040000D1F70895862F642F0C94A101862F642FB5
:100410000C947201862F0C944901CF92DF92EF92D7
:10042000FF920F931F93CF93DF936C017A018B019F
:10043000C0E0D0E0CE15DF0581F0D8016D918D01CF
:10044000D601ED91FC910190F081E02DC601099556
:10045000892B11F02196EECF7E01C701DF91CF915C
:100460001F910F91FF90EF90DF90CF900895CF9361
:10047000DF93EC0160E08E810E94720161E08E8169
:100480000E94720160E08E810E9472018BE891E00F
:100490000197F1F7DF91CF910895CF92DF92EF921C
:1004A000FF920F931F93CF93DF936C017C0187E042
:1004B000E80EF11CC0E0D0E0062F10E0B8010C2ED1
:1004C00002C0759567950A94E2F76170F701819112
:1004D0007F010E9472012196C430D10579F7C601CF
:1004E000DF91CF911F910F91FF90EF90DF90CF9010
:1004F0000C943702CF92DF92EF92FF920F931F93EB
:10050000CF93DF93EC01F62E642F8C810E94720151
:100510008D818F3F19F060E00E9472018F850F2D51
:1005200010E084FF25C06E0187E0C80ED11CE12CCD
:10053000F12CB8010E2C02C0759567950A94E2F76C
:100540006170F60181916F010E947201FFEFEF1A55
:10055000FF0A88E0E816F10461F7CE01DF91CF9140
:100560001F910F91FF90EF90DF90CF900C94370286
:10057000B80184E0759567958A95E1F7CE010E94F0
:100580004D026F2DCE01DF91CF911F910F91FF9002
:10059000EF90DF90CF900C944D02CF93DF936230B9
:1005A00028F090914402986090934402609348022E
:1005B0001092490290E490934A0280934B0290E09B
:1005C000805C9F4F80934C0261E0809139020E94D1
:1005D000A10180913A028F3F19F061E00E94A101D0
:1005E00061E080913B020E94A101C5E3D2E09E013F
:1005F000255332408091440284FD03C084E090E0A2
:1006000002C088E090E02196281739072CF461E0B9
:100610008E810E94A101EBCF8BE39DE00197F1F762
:1006200060E0809139020E94720160E080913B029B
:100630000E94720180913A028F3F19F060E00E949F
:1006400072016091440264FD20C063E085E392E0A2
:100650000E944D02CBE4D6E4CE010197F1F763E0AE
:1006600085E392E00E944D022197F1F763E085E374
:1006700092E00E944D0283E592E00197F1F762E07B
:1006800085E392E00E944D021EC0606240E085E377
:1006900092E00E947A028BE496E40197F1F7609170
:1006A0004402606240E085E392E00E947A0283E5C2
:1006B00092E00197F1F760914402606240E085E3C7
:1006C00092E00E947A0260914402606240E085E319
:1006D00092E00E947A0284E08093450240E06CE060
:1006E00085E392E00E947A0240E061E085E392E0D7
:1006F0000E947A028BE39FE10197F1F782E08093F9
:10070000460240E066E085E392E0DF91CF910C94F1
:100710007A0241E00E947A0281E090E0089585ED3E
:100720008093BC008091BC0084FDFCCF10928B01B3
:10073000089540916701262F30E0240F311D2132AA
:100740003105DCF420918B012430C9F4FC0180E0F8
:1007500090E0861758F4309167012191DC01A95B84
:10076000BE4FA30FB11D2C930196F3CF809167016B
:10077000680F6093670180E0089581E0089582E04A
:10078000089508958FEF9FEF08958FEF9FEF0895DD
:100790008091460190E09195819591090895CF93BC
:1007A000DF93CB01EA01642F0E949903CE01DF9110
:1007B000CF910895CF93DF931F92CDB7DEB76983B2
:1007C00061E0CE0101960E94990381E090E00F90D4
:1007D000DF91CF910895089580E090E008950E9400
:1007E000C7071F920F920FB60F9211242F933F93BA
:1007F0008F939F93AF93BF938091B6019091B70170
:10080000A091B801B091B9013091B10123E0230F5B
:100810002D3720F40196A11DB11D05C026E8230F38
:100820000296A11DB11D2093B1018093B601909352
:10083000B701A093B801B093B9018091B201909132
:10084000B301A091B401B091B5010196A11DB11DF4
:100850008093B2019093B301A093B401B093B5011A
:10086000BF91AF919F918F913F912F910F900FBEAC
:100870000F901F9018951F920F920FB60F92112490
:100880002F933F934F935F936F937F938F939F9398
:10089000AF93BF93EF93FF938091B900887F803629
:1008A00009F49CC068F5883209F45BC090F480318B
:1008B00009F454C038F4882309F4F2C0883009F4EC
:1008C0004DC0F2C0883109F44CC0803209F45DC0DB
:1008D000EBC0803409F468C048F4803309F455C093
:1008E000883309F0E1C080938A01D4C0803509F4CF
:1008F0004FC0883509F45DC0883409F0D5C0D2C036
:10090000883909F4C3C0A8F4883709F467C038F4FB
:10091000883609F463C0803709F460C0C5C08838E0
:1009200009F4B4C0803909F45FC0803809F0BCC054
:100930005BC0803B09F484C038F4803A09F466C097
:10094000883A09F47DC0B0C0803C09F4A3C0883C5B
:1009500009F4A0C0883B09F486C0A6C08091B0010C
:1009600010C09091AF018091AE01981770F5E091A1
:10097000AF0181E08E0F8093AF01F0E0E257FE4FB0
:1009800080818093BB0085EC82C080938A018AC0FD
:10099000E091AF0181E08E0F8093AF018091BB00A9
:1009A000F0E0E257FE4F80839091AF018091AE015D
:1009B0006AC0E091AF0181E08E0F8093AF0180911A
:1009C000BB00F0E0E257FE4F808380918D018111E2
:1009D00069C081E080938C0184EA5DC083E08093EC
:1009E0008B0110928901CFCF80918901803208F06C
:1009F0004DC0E091890181E08E0F80938901809143
:100A0000BB00F0E0E759FE4F8083BDCF85EC8093BB
:100A1000BC0010928B0180918901803230F4E0910A
:100A20008901F0E0E759FE4F10826091890170E082
:100A300089E691E0E0E0F0E009951092890134C088
:100A400084E080938B011092680110926701E0E0CE
:100A5000F0E0099580916701811105C081E08093E4
:100A6000670110924701E091680181E08E0F809349
:100A70006801F0E0E95BFE4F80818093BB009091BC
:100A8000680180916701981708F47DCF85E880930D
:100A9000BC000AC085EC8093BC0010928B0104C09E
:100AA00010928A010E948F03FF91EF91BF91AF9145
:100AB0009F918F917F916F915F914F913F912F9176
:100AC0000F900FBE0F901F9018951092BD011092BD
:100AD000BC0188EE93E0A0E0B0E08093BE0190936B
:100AE000BF01A093C001B093C1018CE191E090934C
:100AF000BB018093BA01109238021092370288E34A
:100B000091E090933602809335028FE08093390212
:100B10008FEF80933A028EE080933B0283E18093D3
:100B20003C0282E180933D0281E180933E0280E1BC
:100B300080933F02109240021092410210924202B2
:100B4000109243021092440261E00E94CD02109282
:100B5000C8011092CC011092CB011092CD018EE20F
:100B600091E09093C7018093C601E6ECF1E0148E0A
:100B700010A2178E11A2369682E0E230F807B9F77C
:100B800084E091E0909329028093280280E091E034
:100B900090932B0280932A0284E080932C0280930E
:100BA0002D0288E091E090932702809326028AE04C
:100BB00090E090932F0280932E0284EF91E0909327
:100BC000310280933002109234021092330210925C
:100BD00022021092230210922402109225021092F7
:100BE00032020895789484B5826084BD84B58160B2
:100BF00084BD85B5826085BD85B5816085BD8091E8
:100C00006E00816080936E0010928100809181005F
:100C10008260809381008091810081608093810057
:100C2000809180008160809380008091B100846019
:100C30008093B1008091B00081608093B00080917A
:100C40007A00846080937A0080917A008260809339
:100C50007A0080917A00816080937A0080917A0096
:100C6000806880937A001092C10064E084E10E9461
:100C7000CD0244E050E060E471E085E392E00E9440
:100C80000D02412C512C3201439450E0252E50E0AE
:100C9000352E21E0209332028FB7F8944091B601AF
:100CA0005091B7016091B8017091B9018FBF8091E7
:100CB000220290912302A0912402B0912502481BA8
:100CC000590B6A0B7B0B80912E0290912F02A0E0B2
:100CD000B0E084179507A607B70708F0F9C0C0E091
:100CE00080912C02C81710F0912C40C0E09128028E
:100CF000F0912902EC0FF11D62E080810E94A101B8
:100D0000CF5FEECFC82DD0E0E0912802F09129020C
:100D1000EC0FFD1F80810E9449012496CC0FDD1F3E
:100D2000CA53DE4F892B09F04BC0888199818A29EB
:100D30009B2999838883839480912C02881610F3D1
:100D4000E0912A02F0912B02E00FF11F61E0808117
:100D50000E94720180912A0290912B02FC01E00F07
:100D6000F11F60E080810E94A101939480912D0287
:100D7000981658F5092D10E0E0912A02F0912B0207
:100D8000E00FF11F61E080810E94A101E0912A0241
:100D9000F0912B02E00FF11F60E080810E94720150
:100DA000D301C201092C04C0880F991FAA1FBB1FC1
:100DB0000A94D2F75C017C01E094F094812CBCCFC2
:100DC000888199818E219F21B4CFC6ECD1E0FE01AC
:100DD000878D90A1892B31F4148E8FEF9FEF968F22
:100DE000858F11A2369622E032E02E173F0781F759
:100DF00010E080912C02181770F500E0E12EF12C24
:100E0000C701880F991FFC01E253FE4F7F0120911B
:100E10002D020217F0F4F70140815181002E02C02B
:100E2000569547950A94E2F7642F6170129F9001DE
:100E30001124200F311DE6ECF1E080E0A58DB68D88
:100E40002A173B0709F493C08F5F36968A30B1F7B3
:100E500070C01F5FCECF80E099A1911181E02696EE
:100E600022E032E02C173D07B9F79FB7F894409184
:100E7000B6015091B7016091B8017091B9019FBF5F
:100E80004093220250932302609324027093250220
:100E90008823F1F08091E7018823D1F08091E5016A
:100EA0009091E6010197A1F46091E2016623D1F1EE
:100EB00041E085E392E00E947A020E94DD016B012D
:100EC0007C0188EE882E83E0982EA12CB12C03C0E3
:100ED0001092320227C00E94DD01DC01CB018C1987
:100EE0009D09AE09BF09883E9340A105B10598F35D
:100EF00031E0831A9108A108B10888EEC80E83E09A
:100F0000D81EE11CF11C81149104A104B10419F74D
:100F100040E061E085E392E00E947A028BE39FE18A
:100F20000197F1F72114310409F4B3CE0E940000B7
:100F3000B0CE40FF1EC0E6ECF1E080E090E0448DD2
:100F4000411119C0E0912602F0912702E20FF31F30
:100F50007081F6E0F89FA001F99F500D1124FA016D
:100F6000EA53FE4F748F368F258F10A2178E0E9482
:100F7000AF000F5F4CCF019636968A309105F9F697
:100F8000F8CFEE0FFF1F0590F491E02D099481E05A
:0C0F900090E0F8940C94CC07F894FFCF8C
:100F9C00070605040302010037383941343536425F
:100FAC00313233432A30234400000000DA03CF03EC
:100FBC00EC03C103C803C503C20300000000020216
:100FCC0006020A020000000089030D02EC03EB0389
:060FDC005849414E0000DF
:107E0000112484B714BE81FFF0D085E080938100F7
:107E100082E08093C00088E18093C10086E0809377
:107E2000C20080E18093C4008EE0C9D0259A86E02C
:107E300020E33CEF91E0309385002093840096BBD3
:107E4000B09BFECF1D9AA8958150A9F7CC24DD24C4
:107E500088248394B5E0AB2EA1E19A2EF3E0BF2EE7
:107E6000A2D0813461F49FD0082FAFD0023811F036
:107E7000013811F484E001C083E08DD089C08234E0
:107E800011F484E103C0853419F485E0A6D080C0E4
:107E9000853579F488D0E82EFF2485D0082F10E0AE
:107EA000102F00270E291F29000F111F8ED06801E7
:107EB0006FC0863521F484E090D080E0DECF843638
:107EC00009F040C070D06FD0082F6DD080E0C81688
:107ED00080E7D80618F4F601B7BEE895C0E0D1E017
:107EE00062D089930C17E1F7F0E0CF16F0E7DF06D8
:107EF00018F0F601B7BEE89568D007B600FCFDCFD4
:107F0000A601A0E0B1E02C9130E011968C91119780
:107F100090E0982F8827822B932B1296FA010C0160
:107F200087BEE89511244E5F5F4FF1E0A038BF0790
:107F300051F7F601A7BEE89507B600FCFDCF97BE46
:107F4000E89526C08437B1F42ED02DD0F82E2BD052
:107F50003CD0F601EF2C8F010F5F1F4F84911BD097
:107F6000EA94F801C1F70894C11CD11CFA94CF0C13
:107F7000D11C0EC0853739F428D08EE10CD085E9AC
:107F80000AD08FE07ACF813511F488E018D01DD067
:107F900080E101D065CF982F8091C00085FFFCCF94
:107FA0009093C60008958091C00087FFFCCF809118
:107FB000C00084FD01C0A8958091C6000895E0E648
:107FC000F0E098E1908380830895EDDF803219F02E
:107FD00088E0F5DFFFCF84E1DECF1F93182FE3DFCA
:107FE0001150E9F7F2DF1F91089580E0E8DFEE27F6
:047FF000FF270994CA
:027FFE00040479
:0400000300007E007B
:00000001FF
